{
  "contractName": "CaiShen",
  "abi": [
    {
      "constant": true,
      "inputs": [],
      "name": "getBalance",
      "outputs": [
        {
          "name": "",
          "type": "uint256"
        }
      ],
      "payable": false,
      "stateMutability": "view",
      "type": "function"
    },
    {
      "constant": true,
      "inputs": [],
      "name": "getNumTotalPayers",
      "outputs": [
        {
          "name": "",
          "type": "uint256"
        }
      ],
      "payable": false,
      "stateMutability": "view",
      "type": "function"
    },
    {
      "constant": true,
      "inputs": [
        {
          "name": "",
          "type": "address"
        }
      ],
      "name": "balanceOf",
      "outputs": [
        {
          "name": "",
          "type": "uint256"
        }
      ],
      "payable": false,
      "stateMutability": "view",
      "type": "function"
    },
    {
      "constant": false,
      "inputs": [],
      "name": "withdrawAll",
      "outputs": [
        {
          "name": "",
          "type": "uint256"
        }
      ],
      "payable": false,
      "stateMutability": "nonpayable",
      "type": "function"
    },
    {
      "constant": true,
      "inputs": [],
      "name": "totalFunds",
      "outputs": [
        {
          "name": "",
          "type": "uint256"
        }
      ],
      "payable": false,
      "stateMutability": "view",
      "type": "function"
    },
    {
      "constant": false,
      "inputs": [],
      "name": "deposit",
      "outputs": [
        {
          "name": "",
          "type": "uint256"
        }
      ],
      "payable": true,
      "stateMutability": "payable",
      "type": "function"
    },
    {
      "constant": true,
      "inputs": [],
      "name": "getTotalFunds",
      "outputs": [
        {
          "name": "",
          "type": "uint256"
        }
      ],
      "payable": false,
      "stateMutability": "view",
      "type": "function"
    },
    {
      "constant": true,
      "inputs": [],
      "name": "getNumActivePayers",
      "outputs": [
        {
          "name": "",
          "type": "uint256"
        }
      ],
      "payable": false,
      "stateMutability": "view",
      "type": "function"
    },
    {
      "inputs": [],
      "payable": true,
      "stateMutability": "payable",
      "type": "constructor"
    },
    {
      "payable": true,
      "stateMutability": "payable",
      "type": "fallback"
    },
    {
      "anonymous": false,
      "inputs": [
        {
          "indexed": true,
          "name": "by",
          "type": "address"
        },
        {
          "indexed": false,
          "name": "amount",
          "type": "uint256"
        }
      ],
      "name": "Deposited",
      "type": "event"
    },
    {
      "anonymous": false,
      "inputs": [
        {
          "indexed": true,
          "name": "to",
          "type": "address"
        },
        {
          "indexed": false,
          "name": "amount",
          "type": "uint256"
        }
      ],
      "name": "Withdrew",
      "type": "event"
    }
  ],
  "bytecode": "0x606060405233600460006101000a81548173ffffffffffffffffffffffffffffffffffffffff021916908373ffffffffffffffffffffffffffffffffffffffff1602179055506104dd806100546000396000f30060606040526004361061008e576000357c0100000000000000000000000000000000000000000000000000000000900463ffffffff16806312065fe01461009357806321b8d3ba146100bc57806370a08231146100e5578063853828b614610132578063968ed6001461015b578063d0e30db014610184578063eb8bbd28146101a2578063f6700468146101cb575b600080fd5b341561009e57600080fd5b6100a66101f4565b6040518082815260200191505060405180910390f35b34156100c757600080fd5b6100cf61023a565b6040518082815260200191505060405180910390f35b34156100f057600080fd5b61011c600480803573ffffffffffffffffffffffffffffffffffffffff16906020019091905050610244565b6040518082815260200191505060405180910390f35b341561013d57600080fd5b61014561025c565b6040518082815260200191505060405180910390f35b341561016657600080fd5b61016e6103b2565b6040518082815260200191505060405180910390f35b61018c6103b8565b6040518082815260200191505060405180910390f35b34156101ad57600080fd5b6101b561049d565b6040518082815260200191505060405180910390f35b34156101d657600080fd5b6101de6104a7565b6040518082815260200191505060405180910390f35b60008060003373ffffffffffffffffffffffffffffffffffffffff1673ffffffffffffffffffffffffffffffffffffffff16815260200190815260200160002054905090565b6000600254905090565b60006020528060005260406000206000915090505481565b6000806000803373ffffffffffffffffffffffffffffffffffffffff1673ffffffffffffffffffffffffffffffffffffffff1681526020019081526020016000205490506000811180156102b257508060015410155b156103ab5760008060003373ffffffffffffffffffffffffffffffffffffffff1673ffffffffffffffffffffffffffffffffffffffff168152602001908152602001600020819055508060016000828254039250508190555060016003600082825403925050819055503373ffffffffffffffffffffffffffffffffffffffff166108fc829081150290604051600060405180830381858888f19350505050151561035c57600080fd5b3373ffffffffffffffffffffffffffffffffffffffff167fb244b9a17ad633c6e83b7983ee04320484956a68ddbe96a0b70dfca1cf19d723826040518082815260200191505060405180910390a25b8091505090565b60015481565b6000803490506000811115156103ca57fe5b806000803373ffffffffffffffffffffffffffffffffffffffff1673ffffffffffffffffffffffffffffffffffffffff1681526020019081526020016000206000828254019250508190555080600160008282540192505081905550600160026000828254019250508190555060016003600082825401925050819055503373ffffffffffffffffffffffffffffffffffffffff167f2da466a7b24304f47e87fa2e1e5a81b9831ce54fec19055ce277ca2f39ba42c4826040518082815260200191505060405180910390a28091505090565b6000600154905090565b60006003549050905600a165627a7a72305820ce3cab82a2a3da62039d480fd0c25aa271cbb883171e994449ee2f6867f1fcec0029",
  "source": "pragma solidity ^0.4.17;\n\ncontract CaiShen {\n    // State data\n    mapping (address => uint) public balanceOf;\n    uint public totalFunds;\n    uint numTotalPayers;\n    uint numActivePayers;\n    address owner;\n\n    // Constructor\n    function CaiShen() public payable {\n        owner = msg.sender;\n    }\n\n    // Fallback function: do not accept direct transfers of ether to this contract.\n    function () public payable {\n        revert();\n    }\n\n    // Events\n    event Deposited(address indexed by, uint amount);\n    event Withdrew(address indexed to, uint amount);\n\n    // Functions\n\n    // Deposit ETH to the contract\n    function deposit () public payable returns (uint) {\n        uint amount = msg.value;\n\n        // Make sure amount is above 0\n        assert(amount > 0);\n\n        // Update balance mapping\n        balanceOf[msg.sender] += amount;\n\n        // Update state vars\n        totalFunds += amount;\n        numTotalPayers += 1;\n        numActivePayers += 1;\n\n        // Log event\n        Deposited(msg.sender, amount);\n\n        return amount;\n    }\n\n    // Returns the balance of the caller\n    function getBalance () public view returns (uint) {\n        return balanceOf[msg.sender];\n    }\n\n    // Returns the value of all funds sent to this contract thus far\n    function getTotalFunds () public view returns (uint) {\n        return totalFunds;\n    }\n\n    // Returns the total number of payers\n    function getNumTotalPayers () public view returns (uint) {\n        return numTotalPayers;\n    }\n\n    // Returns the number of active payers\n    function getNumActivePayers () public view returns (uint) {\n        return numActivePayers;\n    }\n\n    // Return all funds to the sender that they had previously deposited\n    function withdrawAll() public returns (uint) {\n        // Get the caller's balance in the mapping\n        uint amount = balanceOf[msg.sender];\n\n        if (amount > 0 && totalFunds >= amount){\n\n            // Update mapping\n            balanceOf[msg.sender] = 0;\n\n            // Update state vars\n            totalFunds -= amount;\n            numActivePayers -= 1;\n            \n            // Make the transfer\n            msg.sender.transfer(amount);\n\n            // Log event\n            Withdrew(msg.sender, amount);\n        }\n\n        return amount;\n    }\n}\n",
  "sourcePath": "/home/di/dajidali/contracts/CaiShen.sol",
  "compiler": {
    "name": "solc",
    "version": "0.4.18+commit.9cf6e910.Emscripten.clang"
  },
  "schemaVersion": "1.0.1",
  "updatedAt": "2018-01-22T10:51:42.812Z"
}